:040000000201BB320C
:01000B0032C2
:0100130032BA
:01001B0032B2
:0100230032AA
:01002B0032A2
:03003300020612B0
:01003B003292
:01004300328A
:01004B003282
:01005300327A
:01005B003272
:01006300326A
:03006B0002074049
:0300730002076E13
:03007B0002075821
:030083000207C0B1
:03008B00020784E5
:030093000207D889
:03009B0002081444
:0300A3000208153B
:0300AB0002081632
:0300B30002081729
:0300BB0002081820
:0300C30002081917
:0300CB0002081A0E
:0300D30002081B05
:0300DB0002081CFC
:0300E30002081DF3
:0300EB0002081EEA
:0300F30002081FE1
:0300FB00020820D8
:03010300020821CE
:03010B00020822C5
:03011300020823BC
:03011B00020824B3
:03012300020825AA
:03012B00020826A1
:0301330002082798
:03013B000208288F
:0301430002082986
:03014B0002082A7D
:0301530002082B74
:03015B0002082C6B
:0301630002082D62
:03016B0002082E59
:0301730002082F50
:03017B0002083047
:030183000208313E
:03018B0002083235
:030193000208332C
:03019B0002083423
:0301A3000208351A
:0301AB0002083611
:0301B30002083708
:030214000201B62E
:0501B60012021780FE9B
:05021700C203C201C298
:04021C0002C2001208
:040220000616750841
:0302240038750921
:0302270008750A4D
:03022A004A750B07
:03022D0008750C45
:0302300054750DF5
:0302330008750E3D
:030236007B750FC6
:0302390008751431
:03023C00A2751593
:0A023F000890E680E0FA30E70E8533
:030249000C108511
:03024C000D11850C
:03024F000E128507
:040252000F13800CFA
:04025600850E10857C
:03025A000F1185FC
:03025D000C1285FB
:020260000D137C
:0D026200D2E843D82090E668E04409F0900F
:0E026F00E65CE0443DF0D2AF90E680E0FA207D
:07027D00E105D2041208BCE8
:0C02840090E680E0FA54F7F0538EF8C2C8
:01029000036A
:070291003000051202DAC281
:010298000065
:0B0299003003351206B4E582602EC26F
:0102A4000356
:0C02A50012092520012090E682E0FA30CA
:0A02B100E70890E682E0FA20E1EA97
:0E02BB0090E682E0FA30E60890E682E0FA2053
:0202C900E0DA79
:0602CB001209841206B6C0
:0502D1001206B380BB22
:0402D600758201220A
:0C02DA0090E6B9E0FA24F450030205FBA2
:0702E600EA2A2A9002ED73E1
:0702ED000203ED0204990277
:0602F40005FB02055A02A1
:0602FA0005FB0205FB02FA
:0603000003110205FB02DF
:0603060003E70203E1021F
:05030C0003D50203DB34
:0A0311001206B8E582700302060A26
:0A031B0090E6BBE0FABA0102801779
:05032500BA020280484D
:05032A00BA0302806728
:05032F00BA0602801A6D
:05033400BA0702804B36
:030339000203CAF2
:0A033C0090E6B3E509F0AA087B0083
:0803460090E6B4EAF002060A99
:0C034E001202D6E582601290E6B3E50BC7
:0B035A00F0AA0A7B0090E6B4EAF00273
:02036500060A86
:0B03670090E6A0E0FA4401F002060A54
:0A03720090E6B3E511F0AA107B003D
:08037C0090E6B4EAF002060A63
:0A03840090E6B3E513F0AA127B0027
:08038E0090E6B4EAF002060A51
:0E03960090E6BAE0F5821208EEAA82AB837CF4
:0D03A400008A058B068C07EA4B4C600F9019
:0E03B100E6B3EEF07E0090E6B4EDF002060A30
:0B03BF0090E6A0E0FA4401F002060AFC
:0B03CA0090E6A0E0FA4401F002060AF1
:0603D50012072502060AD2
:0603DB0012071D02060AD4
:0603E1001206BA02060A32
:0603E70012070A02060ADB
:0A03ED00120738E582700302060AC9
:0A03F70090E6B8E0FABA8002800D2B
:05040100BA8102802D0C
:05040600BA8202803EF5
:03040B0002048E5A
:0A040E00A201E43325E0FAA202E4A3
:0E04180033FB420290E740EAF090E741E4F047
:0D04260090E68AF090E68B7402F002060A60
:0E04330090E740E4F090E741F090E68AF09008
:08044100E68B7402F002060ACA
:0E04490090E6BCE0FA53027E90E6BCE0FBC3F6
:0E04570074809BE4334A9009CF93FA3395E00A
:0E046500FB74A12AFA74E63BFB8A828B83E0CB
:0E047300FA53020190E740EAF090E741E4F00E
:0D04810090E68AF090E68B7402F002060A05
:0B048E0090E6A0E0FA4401F002060A2C
:0A04990012073AE582700302060A1A
:0C04A30090E6B8E0FA6008BA0202801B84
:0304AF0002060A38
:0B04B20090E6BAE0FABA0105C20102B0
:0204BD00060A2D
:0B04BF0090E6A0E0FA4401F002060AFB
:0904CA0090E6BAE0600302054F60
:0E04D30090E6BCE0FA53027E90E6BCE0FBC36C
:0E04E10074809BE4334A9009CF93FA3395E080
:0E04EF00FB74A12AFA74E63BFB90E6BCE0FC2D
:0E04FD0053047E90E6BCE0FDC374809DE433A2
:0E050B004C9009CF93FC3395E0FD74A12CFCBD
:0E05190074E63DFD8C828D83E0FC5304FE8A67
:0E052700828B83ECF090E6BCE05480C4235439
:0E0535001FFA90E6BCE0FB740F5B90E6832A91
:0C054300F090E683E0FA4420F002060A83
:0B054F0090E6A0E0FA4401F002060A6A
:0A055A0012073CE582700302060A56
:0C05640090E6B8E0FA6008BA02028026B7
:030570000205F190
:0B05730090E6BAE0FABA0105D20102DE
:02057E00060A6B
:0B05800090E6BAE0FABA020302060A95
:0B058B0090E6A0E0FA4401F002060A2E
:0E05960090E6BCE0FA53027E90E6BCE0FBC3A8
:0E05A40074809BE4334A9009CF93FA3395E0BC
:0E05B200FB74A12AFA74E63BFB90E6BCE0FC69
:0E05C00053047E90E6BCE0FDC374809DE433DE
:0E05CE004C9009CF93FC3395E0FD74A12CFCFA
:0E05DC0074E63DFD8C828D83E0FC4304018AB1
:0705EA00828B83ECF0801905
:0A05F10090E6A0E0FA4401F0800F4C
:0E05FB0012073EE582600890E6A0E0FA440197
:01060900F000
:08060A0090E6A0E04480F0221C
:0306120053D8EFCB
:0106150032B2
:0A09CF000001020203030404050501
:0E06160090E6007410F090E6027408F0000008
:0E0624000090E60374E0F000000090E670E045
:0E063200FA4480F090E60174E3F090E6127452
:0E064000A0F000000090E61474E0F00000004E
:0E064E0090E6137402F000000090E6157402AE
:0E065C00F000000000000090E6047480F00042
:0E066A00000090E6047402F000000090E60428
:0E0678007404F000000090E6047406F0000028
:0E0686000090E6047408F000000090E604E422
:0D069400F000000090E618E4F00000009077
:0E06A100E6187410F000000090E61A740CF0D9
:0406AF000000002225
:0106B3002224
:0206B400D3224F
:0206B600D3224D
:0206B800D3224B
:0E06BA0090E680E0FA30E72190E6247402F02A
:0D06C80000000090E6267402F00000009093
:0E06D500E625E4F000000090E627E4F0801F28
:0E06E30090E624E4F000000090E626E4F0002B
:0E06F100000090E6257440F000000090E6271F
:0306FF007440F054
:0807020090E6BAE0F516D322DF
:0C070A0090E740E516F090E68AE4F090DD
:07071600E68B7401F0D32211
:08071D0090E6BAE0F517D322C3
:0C07250090E740E517F090E68AE4F090C1
:07073100E68B7401F0D322F6
:02073800D322CA
:02073A00D322C8
:02073C00D322C6
:02073E00D322C4
:0C074000C0E0C082C083D2005391EF9053
:0C074C00E65D7401F0D083D082D0E03272
:0E075800C0E0C082C0835391EF90E65D740450
:08076600F0D083D082D0E03214
:0E076E00C0E0C082C0835391EF90E65D74023C
:08077C00F0D083D082D0E032FE
:0E078400C0E0C082C083C00290E680E0FA3080
:06079200E70E850C108546
:030798000D1185BB
:03079B000E1285B6
:04079E000F13800CA9
:0407A200850E10852B
:0307A6000F1185AB
:0307A9000C1285AA
:0207AC000D132B
:0E07AE005391EF90E65D7410F0D002D083D02E
:0407BC0082D0E032D5
:0C07C000C0E0C082C083D2035391EF90D0
:0C07CC00E65D7408F0D083D082D0E032EB
:0E07D800C0E0C082C083C00290E680E0FA302C
:0607E600E70E850C1085F2
:0307EC000D118567
:0307EF000E128562
:0407F2000F13800C55
:0407F600850E1085D7
:0307FA000F118557
:0307FD000C128556
:020800000D13D6
:0E0802005391EF90E65D7420F0D002D083D0C9
:0408100082D0E03280
:0108140032B1
:0108150032B0
:0108160032AF
:0108170032AE
:0108180032AD
:0108190032AC
:01081A0032AB
:01081B0032AA
:01081C0032A9
:01081D0032A8
:01081E0032A7
:01081F0032A6
:0108200032A5
:0108210032A4
:0108220032A3
:0108230032A2
:0108240032A1
:0108250032A0
:01082600329F
:01082700329E
:01082800329D
:01082900329C
:01082A00329B
:01082B00329A
:01082C003299
:01082D003298
:01082E003297
:01082F003296
:010830003295
:010831003294
:010832003293
:010833003292
:010834003291
:010835003290
:01083600328F
:01083700328E
:0209D90000001C
:0109DB00001B
:0E0838001201000200000040B4040410010090
:0408460001020001AA
:0A084A000A06000200000040010051
:0E08540009022700010100A032090400000380
:0E086200FF0000000705020200020007050863
:0B0870000200020007058602000200E3
:0E087B0009022700010100A032090400000359
:0E088900FF00000007050202400000070508FE
:0B089700024000000705860240000040
:0408A2000403040443
:0A08A6000A03460032004600570026
:0A08B0000A0356003100300030004A
:0208BA0000003C
:03004300021A009E
:03005300021A008E
:091A00000207400002076E00021B
:081A09000758000207C00002AB
:081A11000784000207D800025F
:081A1900081400020815000288
:081A210008160002081700027C
:081A2900081800020819000270
:081A3100081A0002081B000264
:081A3900081C0002081D000258
:081A4100081E00020815000256
:081A4900081F00020820000242
:081A5100082100020822000236
:081A590008230002082400022A
:081A610008250002081500022F
:081A6900081500020815000237
:081A710008260002082700020C
:081A7900082800020829000200
:081A8100082A0002082B0002F4
:081A8900082C0002082D0002E8
:081A9100082E0002082F0002DC
:081A99000830000208310002D0
:081AA1000832000208330002C4
:081AA9000834000208350002B8
:071AB10008360002083700AF
:0C08BC0030040A90E680E0FA440AF08064
:0108C8000827
:0808C90090E680E0FA4408F01B
:0D08D1009005DC12093990E65D74FFF0908F
:0E08DE00E65F74FFF05391EF90E680E054F770
:0208EC00F022F8
:0601EA00E478FFF6D8FDE9
:0801C8007903E94400601B7A91
:0501D000019009D9783F
:0301D5000075A012
:0A01D80010E493F2A308B80002053A
:0801E200A0D9F4DAF275A0FFC8
:0801F0007800E84400600A7980
:0301F8000075A0EF
:0601FB0010E4F309D8FC3A
:080201007800E84400600C796C
:0B02090000901000E4F0A3D8FCD9FA2C
:0608EE00AA82AB14AC1558
:0E08F4008B828C83A3E0FDBD03238A051AEDE1
:0709020070058B828C83223B
:0E0909008B058C068B828C83E0FF7800EF2D2F
:0A091700FDE83EFE8D038E0480D340
:040921009000002220
:0E09250090E682E044C0F090E681F043870146
:060933000000000000229C
:0E093900AA82AB8390E600E0FC5418701174A3
:0E094700012AFCE43BFD8C02C313CA13CAFB59
:0209550080120E
:0E09570090E600E0FC530418BC1007EBCA2524
:04096500E0CA33FBB6
:090969008A048B051ABAFF011B78
:0E097200EC4D600DC002C0031209BAD003D0D4
:030980000280E60C
:010983002251
:0E09840090E682E0FA30E00890E682E0FA2089
:02099200E6106D
:0E09940090E682E0FA30E11D90E682E0FA3053
:0209A200E71557
:0E09A40090E680E04401F090001412093990B2
:0709B200E680E0FA54FEF0BC
:0109B900221B
:0301BB007581202B
:0A01BE001209CBE58260030201B6CE
:0909BA007400F58690FDA57C0592
:0809C300A3E582458370F922CF
:0409CB00758200220F
:00000001FF
